:020000040800F2
:20000000000002208118000891170008931700089517000897170008991700080000000099
:20002000000000000000000000000000B15A00089B17000800000000415B0008A55B000847
:20004000D1180008D1180008D1180008D1180008D1180008D1180008D1180008D118000818
:20006000D1180008D1180008D1180008D1180008D1180008D1180008D1180008D1180008F8
:20008000D1180008D1180008D1180008D11800083D080008D1180008D1180008D11800087C
:2000A000D1180008D1180008D1180008D1180008D1180008D1180008D1180008D1180008B8
:2000C000D1180008D1180008D1180008D1180008D1180008D1180008D1180008D118000898
:2000E000D1180008D1180008D1180008D1180008D1180008D1180008D1180008D118000878
:20010000D1180008D1180008D1180008D1180008D1180008D11800089D170008D11800088C
:20012000D1180008D1180008D1180008D1180008D1180008A9170008D1180008D118000860
:2001400049080008D1180008D1180008D1180008D1180008D1180008D1180008D1180008AF
:20016000D1180008D1180008D1180008D1180008D1180008D1180008D118000800000000E8
:20018000D1180008D1180008FFFFFFFFFFFFFFFF10B5054C237833B9044B13B10448AFF3E7
:2001A00000800123237010BDEC00002000000000D4EF000808B5034B1BB103490348AFF354
:2001C000008008BD00000000F0000020D4EF000801F0FF01102A2BDB10F0070F08D010F8D8
:2001E000013B013A8B422DD010F0070F42B3F6D1F0B441EA012141EA014122F007047FF002
:2002000000070023F0E80256083C85EA010586EA010685FA47F5A3FA87F586FA47F6A5FA24
:2002200087F68EB9EED1F0BC01F0FF0102F0070232B110F8013B013A83EA010313B1F8D143
:200240000020704701387047002D06BF35460338073815F0010F07D1013015F4807F02BF09
:20026000013015F4C03F0130F0BC0138704700BF53B94AB9002908BF00281CBF4FF0FF3148
:200280004FF0FF3000F070B9ADF1080C6DE904CE00F006F8DDF804E0DDE9022304B0704700
:2002A0002DE9F047089E0D4604460F46002B4AD18A42944665D9B2FA82F343B102FA03FC1F
:2002C000C3F120029F4020FA02F217439C404FEA1C4E1FFA8CF5B7FBFEF1220C0EFB117788
:2002E00042EA074201FB05F090420AD91CEB020201F1FF3780F01C81904240F219810239CA
:200300006244121AA4B2B2FBFEF00EFB102244EA024400FB05F5A5420AD91CEB040400F1AC
:20032000FF3280F00781A54240F204816444023840EA0140641B00211EB1DC400023C6E94C
:200340000043BDE8F0878B4208D9002E00F0ED800021C6E900050846BDE8F087B3FA83F1A5
:20036000002949D1AB4202D3824200F2F880841A65EB030201201746002EE2D0C6E9004703
:20038000DFE702B9FFDEB2FA82F3002B40F090808A1A4FEA1C471FFA8CFE0121B2FBF7F5D5
:2003A00007FB1520220C42EA00420EFB05F0904208D91CEB020205F1FF3802D2904200F2E9
:2003C000CB804546121AA4B2B2FBF7F007FB102244EA02440EFB00FEA64508D91CEB0404A7
:2003E00000F1FF3202D2A64500F2BB801046A4EB0E0440EA05409FE7C1F120078B4022FA43
:2004000007FC4CEA030C05FA01F420FA07F3FD404FEA1C492343B5FBF9F81FFA8CFE09FB03
:2004200018551C0C44EA054408FB0EF5A54202FA01F200FA01F00BD91CEB040408F1FF3AC4
:2004400080F08880A54240F28580A8F102086444641B9DB2B4FBF9F309FB134445EA044480
:2004600003FB0EFEA64508D91CEB040403F1FF356CD2A6456AD9023B644443EA0843A3FB08
:200480000295A4EB0E04AC42C846AE4656D353D056B1B0EB080264EB0E0404FA07F7CA40D5
:2004A000CC401743C6E9007418460021BDE8F087C3F1200102FA03FC20FA01F225FA01F12A
:2004C0009D402A434FEA1C471FFA8CFEB1FBF7F007FB1015110C41EA054100FB0EF58D427E
:2004E00004FA03F408D91CEB010100F1FF382FD28D422DD902386144491B92B2B1FBF7F500
:2005000007FB151142EA014205FB0EF1914208D91CEB020205F1FF3816D2914214D9023D72
:200520006244521A45EA004138E73146304608E73946E6E61046FBE64845A9D2B9EB020806
:2005400065EB0C0E013BA3E74546EAE72B4694E74046D1E7D0467BE7023D624432E7084621
:200560000AE76444023842E7704700BF10B54FF4C872044600210DF02CFE002384F89431D1
:20058000C4F8904110BD30B590F89431A3B3C0F8900101F108020024D0F890311B7801F8FB
:2005A000013BD0F890311C70D0F89031914203F10103C0F89031EFD1C0F89001012390F868
:2005C00094219A4204D8013A80F89421002030BD00EBC3040822D0F8901114F8015B0D700F
:2005E000D0F89011013A013112F0FF02C0F89011F1D10133DBB2E2E70120E8E710B590F840
:200600009431312B1BD800EBC303C0F890314B1E0731D0F8902113F8014F1470D0F890212A
:200620008B4202F10102C0F89021F2D190F89431C0F89001013380F89431002010BD0120B6
:20064000FCE700007FB54FF4C0520223CDE9012300210323CDE903130448092301A9059362
:2006600002F01EFD07B05DF804FB00BF000002407FB560220223CDE9012300210323CDE9AF
:2006800003130448092301A9059302F009FD07B05DF804FB0004024000B54FF4006C8BB0A2
:2006A0006C21CDE900C109494FF6FF7E00230122CDE902E16946CDE90533079204930892DC
:2006C00001F050FA0BB05DF804FB00BF7C800F0000B54FF4006C8BB06C21CDE900C1094911
:2006E00000224FF6FF7E0E23CDE90532CDE902E10123694607930492089301F033FA0BB0E8
:200700005DF804FB7C800F0013B5144A00240194116C41F000711164126C1149848302F036
:2007200000720192019A10224FF4402CC0E900124FF4A002C0E904C24FF00122C0E90244D8
:20074000826101F092F922460A21142001F0F6FC142002B0BDE8104001F022BD003802406B
:200760000064004013B5144A00240194116C41F080611164126C1149848302F080620192AC
:20078000019A10224FF4402CC0E900124FF4A002C0E904C24FF00122C0E90244826101F0A9
:2007A00064F922460A21402001F0C8FC402002B0BDE8104001F0F4BC00380240006800406A
:2007C00010B50221044601F08CFB2046BDE8104001F04EBAFFF7F4BF08B50A4801F0A4FAD4
:2007E000402001F0EBFC402001F00CFD064801F09BFA142001F0E2FCBDE80840142001F07E
:2008000001BD00BFD0020020A802002010B588B0044610460822002306920422CDE904231A
:20082000CDE9023401938DF81C300DEB02030A4602A901F08DFA08B010BD0000014801F038
:200840006DBB00BFA8020020014801F067BB00BFD002002010B503685B699B0788B011D526
:20086000094B094C01AA002101F0C4FA074B029A1B689A4203D106482146FFF7BFFE0023A8
:200880002360636008B010BDA0020020540000200801002070477047034B0360034B0B6056
:2008A00080231360704700BFF8040020F802002080B400AF094B4FF0FF321A62074B0022DF
:2008C0001A62064B4FF0FF325A62044B00225A6200BFBD465DF8047B704700BF003802406C
:2008E00080B400AF064B00221A60054B00229A60034B00225A6000BFBD465DF8047B704745
:2009000010E000E080B483B000AF00233B603B6883F3118800BF00237B607B6883F31488CF
:20092000BFF36F8F00BF124B4FF0FF32C3F880200F4B4FF0FF32C3F880210D4B4FF0FF3232
:20094000C3F884200A4B4FF0FF32C3F88421084B4FF0FF32C3F88820054B4FF0FF32C3F872
:20096000882100BF0C37BD465DF8047B704700BF00E100E080B483B000AF00237B6013E0B7
:2009800000233B6002E03B6801333B603B6846F2A7129342F7D9094B5B69084A83F0080324
:2009A00053617B6801337B607B68632BE8D900BF00BF0C37BD465DF8047B704700100240BE
:2009C0001A4B1B681B68013370B52AD0184C194802F007FD23685D68FFF7FEFE4FF0E0231A
:2009E00000221A6114489A614FF6FF715A6102F031FC12484FF6FF7102F02CFC10484FF6AE
:200A0000FF7102F027FC0F484FF6FF7102F022FC72B623681B6883F308882B46BDE8704033
:200A20001847BDE8704001F0DBBB00BF5C00002000000020E80D002000040240000802407B
:200A4000000C02400010024008B50D4E0D4C0E4D304602F0C6FC636983F0080363612B685F
:200A6000C72B09D801332B60084A136832200133136003F012FCEBE7FFF7A2FFF4E700BF1A
:200A8000E80D0020001002402418002028180020084930B500230868074D1A465C1C9BB2F1
:200AA000984203D8054B0A601A7030BDEA542346F4E700BF0818002008100020201800203F
:200AC00008B502F0B7F9024BF322DA6008BD00BF003C02407FB50D4802F083FCFFF7F0FF3A
:200AE0000023CDE900330223059301210523CDE9021301A803236946049302F081FA02F0A4
:200B0000ABF9009807B05DF804FB00BFE80D00202DE978410C4606461546FFF7D1FF2544C3
:200B20004FF00008361BAC4204D102F095F94046BDE8788100233119184614F8012B02F0C1
:200B4000BDF98046EFE7000008B528484FF4804102F014FC18B9264A137801331370234822
:200B60004FF4004102F00AFC18B9214A13780233137020484FF4806102F000FC18B91C4AC9
:200B80001378043313701B484FF4006102F0F6FB18B9174A13780833137016484FF4805139
:200BA00002F0ECFB18B9124A13781033137011484FF4005102F0E2FB18B90F4A1378013339
:200BC00013700C484FF4804102F0D8FB18B90A4A13780233137007484FF4004102F0CEFB7F
:200BE00018B9054A13780433137008BD000402405B000020000C02405A00002008B5FFF78F
:200C0000A3FF144B1A78144B1B781B0443EA0263124A127843EA0223114A1178114A1943CB
:200C200009BA1160104A4FF6FF7010601A02180A02F47F0200F47F40024342EA13630B4A5E
:200C400043F0807313600A4B19600A4B1A680A4B1A6008BD58000020590000205A00002057
:200C60005B000020D8180020DC180020D41800201C18002064170108D80D0020044B18681D
:200C800020B1044B04491A8805F052BA05F01CBAAC05002006000020D80D0020044B1868AE
:200CA00020B1044B04491A8805F01CBA05F00CBAAC050020060000201C18002030B501442A
:200CC0004FF6FF734AF20104884201D1184630BD10F8012B5340082203F001055B080DB12A
:200CE00063409BB2013A12F0FF02F5D1ECE738B504460D46FFF7E2FF611901F8020C000A41
:200D000001F8010C38BD000008B502F089FF00221146202005F06EF92F4D304C2860FFF716
:200D2000BDFFFFF7ABFF06F0A5FA2D4EDFF8CC9020603378002B45D199F80030DFF8C080D0
:200D4000012B03D198F80030012B3BD1254BDFF8B4A04FF40062184600210DF03AFA224A3F
:200D600012780270214A12784270022A03462DD11F482049AAF800200268D1F800C042EAAC
:200D80000C02120A1A71026809680A43D2B25A710222DA7013480821FFF7A9FFBAF80020C5
:200DA00010492068063292B206F09CFA2168286805F0E4F9206806F07BFA01233370002382
:200DC00088F80030052003F068FAB2E70222AAF80020094A1278DAE7AC050020A80500202E
:200DE00060000020D50500200400002021180020FC0D0020DC0D00202E1800202C18002000
:200E0000F60D0020D60D00200844002300F8023C00F8013C704738B54318024613F8015C23
:200E200013F8024CFFF7F0FF1046FFF747FF44EA0524231A5842584138BD00002DE9734F4E
:200E40007C4E7D4D96F800A07C4CBAF1010F40F04F817B4B93F800802B78002B40F09F805F
:200E6000B8F1070F00F24281DFE818F0080017002A0056001500870040019600714B724AA5
:200E80005B781370012B06D1704A00231360704A1360704A1370002310E0FFF71BFE6E4B64
:200EA000013018BF4FF0020883F80080694B01221A70664A00231360654A1360237015E194
:200EC000DFF88891DFF8D0B1D9F80000DBF800205C4900F1006000F50030FFF719FE5C4B37
:200EE00080B9D9F80020DBF800100A44C9F800201A6801321A60584B83F800A0554B022205
:200F00001A70C8E70022C9F800201A60534B4FF6FF721A60C246EEE74A4BDFF830911B88A0
:200F2000D9F800A0DFF874815BBAA8F800309AFA8AF300934A4B042218686946FFF7E8FD26
:200F4000484B51461868FFF7B9FE474B1880414B03221A70B8F8003083423F4B01D10122B1
:200F6000CEE702221A70FFF7B5FD013093D1384A0023C9F8003013608DE7364B05221A7022
:200F80003A4A13783E2B9FBF3949C85C3249013394BF087000237DE701232B707BE7B8F10A
:200FA000060F00F2A380DFE818F07D007D00E5007D007D007D0007002E4BDFF8E4801A7895
:200FC0002D4B1A70D8F80030FBB12C48016841EA021101602A48016841EA021101602948FC
:200FE000016843EA021341EA021102F0F002602AC8F80030016008D123F00F0343F00A030B
:20100000C8F80030204B55221A70D8F800001F4B98423FF440AF00283FF43DAF1C4A1A492E
:20102000FFF7F4FB1B4A1849D8F80000FFF7EEFB31E700BFE20D00202C180020600000208C
:2010400020180020081000202D180020CC050020FC0D0020211800202E180020DC0D0020B9
:201060005C00002000000020C8050020D405002008000020F40D0020040000205000002011
:2010800054000020480000200C1800200F000001A8020020D00200200818002006100020EE
:2010A0004C0000206D4BDFF8CC9183F800806C4B6C491B7889F80030022389F803306A4B9F
:2010C00089F801804FF0000A1A68C9F804A009F1040089F802A00DF047F908214846FFF7D3
:2010E00006FE624B84F800A001221A70FFF7D0FC2B784FF00009012B86F8009015D1DFF8D2
:201100006C8198F80030012B46D1DFF8A0A1584A5849DAF80000FFF779FB574A5549DAF837
:201120000000FFF773FB88F80090DFF8848153484146FFF728FAA0B908214046FFF76BFEBE
:2011400078B14F48D8F800300360D8F8043043604378022B437961D04A4A13704A4B012221
:201160001A702278494B002A71D11A60052003F094F867E6394B3B49454802221A703A4B18
:201180001A680DF0F1F8434B434901221A700B6813440B60414BB3E6404B1B78012BC4D1E7
:2011A000DFF804A1DFF8EC809AF80030012B03D098F80030002BB8D0394BDFF8F8901B68D6
:2011C000D9F80020934202D098F8002012B313F03F0302D198F80020E2B1324ADFF8D8B0CC
:2011E00002EBC3026B4650689168214A03C3DBF800006946FFF70AFB1F4ADBF80000694642
:20120000FFF704FBD9F800300133C9F80030002388F8003000238AF8003086E7027903EB35
:2012200002231F4A13F03F0813600ED19A0B9B094371027180F8068080F807800821FFF7F8
:2012400056FD164B83F8008088E7174B87E71A680A2A82BF00221A60227087E721180020B4
:20126000040000200810002008180020F50D0020A8020020B8050020D002002008010020EE
:20128000B00500202E180020F60D002028180020040E0020E10D0020FC0D0020F70D002003
:2012A000D0050020000E0020F80D002050000020C0050020E40D0020480000202DE9784743
:2012C0003B4D3C4E3A4930683B4CDFF80C9105F043F88246002835D12B681B685989586808
:2012E000FFF799FD354A002856D0354B99F80010C3F800A0A4F800A02B6821B90121D3F883
:20130000088089F800101B682E495B68DFF8CCC018780870587810705A882B4952BA92B296
:201320000A60191DC3F1FF2303F57F03FC3301EB030E72452BD8092801D9FFF7A9FB234BC4
:2013400001221A70286805F0A1FF99F80030012B24D1022389F800301D4B3068C3F80080C8
:2013600004F0B2FE00221146202004F043FE306005F080FF174B1860FFF780FCFFF78EFC0B
:20138000238805200133238002F087FF9AE711F801EB0CF801EBCAE71070D3E7228841F200
:2013A00088339A4282BF002389F800302380E7E718180020AC05002014180020201800204B
:2013C00024180020F40D002008180020E20D0020D80D0020A8050020E00D0020081000202A
:2013E00010B594B0102200210AA80CF0F2FE1422002103A80CF0EDFE1F4B002101911A6C67
:2014000042F080521A641B6C03F080530193019B1A4B02911A6842F480421A601B6803F467
:2014200080430293029B01224FF480330224CDE908234FF48003CDE90E431921A023CDE917
:20144000101308A804231294139301F0D1FF08B172B6FEE70F23CDE903344FF48053CDE9D4
:2014600006300590214603A802F09CF908B172B6FEE714B010BD00BF0038024000700040C8
:201480000748084A08B50523C0E9002340F6FF73836001F07EFF08B172B6FEE708BD00BFB7
:2014A000E80D00200030004000B50025A3B0FFF761FA00F0D7F9FFF7FBF9FFF711FAFFF788
:2014C00021FAFFF7DDFF00F08FFAFFF789FFCDE91D55624B00951F951A6B614E42F0100292
:2014E0001A631A6B02F010020092009A01951A6B42F080021A631A6B02F080020192019A47
:2015000002951A6B42F004021A631A6B02F004020292029A03951A6B42F001021A631A6BF9
:2015200002F001020392039A04951A6B42F002021A631A6B02F002020492049A05951A6BE5
:2015400042F008021A631B6B03F0080301244FF00808304605931BA9CDE91B84059B01F022
:201560009FFD4FF440433F481D941BA9CDE91B3501F096FD4FF47C433B481D941BA9CDE9D3
:201580001B3501F08DFD22464146304601F0FCFEFFF758F83548FFF7B7F83448FFF77CF8E2
:2015A0003248FFF70DF9FFF763F83148FFF7DAF82F48FFF78DF82E48FFF70CF92D48FEF756
:2015C000D5FF736983EA08037361FFF717FB2A4801F007FF294B1D70294B1C70294C0FCC4D
:2015E00006AE0FC694E8070086E80700294606A802F02BFE244B04F10C0C1860BCE80F008B
:201600000DAE0FC69CE8070086E8070029460DA802F01BFE1D4B04F1280C1860BCE80F004F
:2016200014AE0FC69CE8070086E80700294614A802F00BFE164B443418600FCC1BAE0FC623
:2016400094E8070086E8070029461BA802F0FDFD104B186002F0EDFDFEE700BF00380240A7
:201660000010024000040240000C0240A8020020D002002008010020E80D0020E20D00207B
:2016800060000020ECEF0008A40500209C05002098050020A00500200268034B9A4201D175
:2016A00000F0BCB9704700BF0010004072B6FEE782B00E4B00220092596C41F4804159643B
:2016C000596C01F48041009100990192196C41F0805119641B6C03F080530193019B0F2121
:2016E0006FF0010002B000F029BD00BF0038024070B588B000230293204B1A6C42F010027F
:201700001A641B6C03F010030293054601A903A8029B02F0F7F8069B4BBB02F0E3F8184E31
:20172000184B336040F2E733F360174BB0FBF3F3013B7360304600233361B360B36102F0CC
:201740003FFA044680B9304602F0FCF8044658B9362000F025FD0F2D0DD822462946362060
:2017600000F0ECFC094B1D60204608B070BD02F0B9F84000D3E70124F6E700BF003802409D
:20178000301800200010004040420F006C000020FEE7FEE7FEE7FEE7FEE77047014802F009
:2017A0000FB900BF30180020014801F073B900BF841A002001207047024B16221A604FF041
:2017C000FF30704780B10120014B16221A60FEE780B1012070B50D4614460E46731B9C420A
:2017E00001DC204670BDAFF3008006F8010BF5E770B50D4614460E46731B9C4201DC20469C
:2018000070BD16F8010BAFF30080F5E74FF0FF3070474FF400534B6000207047012070476E
:20182000002070470A4A116810B5034609B9094911601068084C09490344091B8B4289BFD3
:20184000074B13600C221A6088BF4FF0FF3010BD7818002090B10120000400000000022061
:2018600080B10120054BD3F8882042F47002C3F888204FF000629A60704700BF00ED00E06A
:20188000DFF834D00D480E490E4A002302E0D458C4500433C4188C42F9D30B4A0B4C0023A8
:2018A00001E013600432A242FBD3FFF7DBFF0CF035FDFFF7F9FD7047000002200000002009
:2018C000EC000020981A0108EC00002090B10120FEE730B570B1CC6864B18A6852B10B6936
:2018E00043B10D6849688560C0E90424C1608361002030BD4FF0FF30FBE773B546680024BC
:201900000546019406BB836803B1984720232B6000246B6901AA122130469847002809DBA3
:20192000019B03F01F03B34206D12E6001236B60002409E06FF004040136202EE9D12B6867
:201940001F2B04D8002CF1D0204602B070BD6FF00204F9E737B5002543690195044601AAA2
:20196000006801219847A84203DA6FF0040003B030BD6369206801AA012198470028F4DB3D
:20198000019B5B072CD56369206801AA294698470028EADB019BDD040ED403F40452B2F5BB
:2019A000045F01D10220E2E7980401D50320DEE7D90513D50420DAE76369206801AA1F21C3
:2019C00098470028D1DB019BDA040BD503F01C03182BE7D0082BE9D0142BEBD00520C6E736
:2019E0000120C4E70620C2E708B50B4B1A6842F400721A601A6842F480621A601A6842F4C9
:201A000080721A60032000F087FB0F20FFF770FEFFF74EFE002008BD003C0240034A044BF1
:201A200011681B780B441360704700BF7C18002068000020014B1868704700BF7C18002030
:201A400038B50446FFF7F6FF631C1CBF054B1B78054618BFE418FFF7EDFF431BA342FAD317
:201A600038BD00BF68000020704738B5044600286ED090F820300BB9FFF7F6FF226813684A
:201A800043F001031360FFF7D5FF054623685A68D10751D51A6822F002021A60FFF7CAFF6B
:201AA000054623685A68920754D4227E012A1A680CBF42F0800222F080021A60627E012AE8
:201AC0001A680CBF42F0400222F040021A60A27E012A1A680CBF42F0200222F020021A60DD
:201AE000E27E012A1A680CBF22F0100242F010021A60227F012A1A680CBF42F0080222F0C5
:201B000008021A60627F012A1A680CBF42F0040222F004021A60D4E902210A4321690A431A
:201B200061690A43616801390A43DA6100200123606284F8203038BDFFF77CFF401B0A283E
:201B4000A4D9636A43F400336362052384F820300120F0E7FFF76EFF401B0A28A1D9F0E7DF
:201B60007047000030B590F82030013B012B77D83E4BD3F8002242F00102C3F80022D3F8E7
:201B8000002222F47C52C3F80022D3F80022486A42EA0022C3F800224A69D3F81C5202F0BA
:201BA0001F040120A04025EA0005C3F81C52CD69C443002D35D1D3F80C522540C3F80C52AD
:201BC000CB688D8845EA0345D30003F1804303F5C8430A88C3F840528D6842EA0542C3F8B7
:201BE00044228A69214B8ABBD3F804222240C3F804220A6972BBD3F814221440C3F81442A1
:201C00000B6A012B194B02BFD3F81C220243C3F81C22D3F8002222F00102C3F800220020B8
:201C200030BD012DDDD1D3F80C520543C3F80C520B688D8845EA0345D30003F1804303F5D0
:201C4000C8438A89C3F840528D68C6E7D3F804220243CCE7D3F814220243C3F81422CFE7A1
:201C6000436A43F4802343620120D9E70064004070B590F82030012B0446DDB220D1026856
:201C8000022380F82030136823F001031360FFF7D1FE064623685B6813F0010302D1636254
:201CA0001D460BE0FFF7C6FE801B0A28F2D9636A43F400336362052384F82030284670BDF9
:201CC000436A43F4002343620125F7E738B590F82030022B044622D10268136843F0010309
:201CE0001360FFF7A7FE054623685A68D20708D51A6822F002021A60012384F82030002066
:201D000038BDFFF797FE401B0A28EDD9636A43F400336362052384F820300120F0E7436A5B
:201D200043F480134362F8E710B5044670B1FFF7CDFF2046FFF714FF22681368002043F498
:201D400000431360606284F8200010BD0120FCE7F0B590F820500668013D012DB46845D8EE
:201D600014F0E05F3ED0C4F30164032C4FF0010505D1436A43F40003436201202AE0A54010
:201D80001D60D1E9020704F1180320BB08681B0147EA4057F75006EB04130D69C3F884516F
:201DA000097D012908BFD3F884114FEA041004BF41F48071C3F8841106445168C6F88C1168
:201DC0001268C6F88821D3F8802142F00102C3F880210020F0BD4D6838431B0140EAC5001D
:201DE000F050D8E7436A43F40013C5E7436A43F48023C1E7F0B590F82040013C012C6CD8D7
:201E0000066841B9F468A40707D1436A43F400134362012056E03469F5E706EB01150C01FB
:201E2000D5F8B07107F004079760002F4BD1D5F8B0717F0D1760D5F8B07107F00207D7605A
:201E4000D5F8B47107F00F071761D5F8B471D5F8B4512644C7F307272D0C97615561D6F840
:201E6000B8211A7002682244D2F8B821120A5A7002682244D2F8B821120C9A70026822443B
:201E8000D2F8B821120EDA7002682244D2F8BC211A7102682244D2F8BC21120A5A7102686B
:201EA0002244D2F8BC21120C9A7102682244D2F8BC21120EDA71036851B9DA6842F02002FF
:201EC000DA600020F0BDD5F8B071FF085760B2E71A6942F020021A61F3E7436A43F4802303
:201EE00096E790F82030013B012B05D8026853691943516100207047436A43F48023436211
:201F0000012070477047704770477047704770477047704770477047704770472DE9F84FF8
:201F200003685E69D3F804909F68D3F80CB0D3F810A0D3F8188016F00104054622D017F055
:201F4000010407D00122B9079A6040F1A580FFF7D9FF0024FB0509D52B684FF48072B8051D
:201F60009A6040F1A7802846FFF7CDFFFB0309D52B684FF48032B8039A6040F1A9802846FE
:201F8000FFF7C2FF330707D51BF0100F1FBF2B68102244F40074DA60770708D51BF0080F44
:201FA00005D02B680822DA602846FFF7B1FFB00706D52B68DB68990702D02846FEF74AFCBE
:201FC000720607D51AF0100F1FBF2B68102244F480641A61B30608D51AF0080F05D02B682B
:201FE00008221A612846FFF795FFF70606D52B681B69980702D02846FFF78BFFB10308D565
:020000040800F2
:2020000019F0100F05D02B6810225A602846FFF782FFF20308D519F0080F05D02B680822DB
:202020005A602846FFF778FF33042CD519F0040F2A6826D0F70504D518F0010F18BF44F037
:202040000104B00504D518F0020F18BF44F00204710504D518F0040F18BF44F0040433050E
:202060000FD518F070030CD0402B4FD03ED8202B46D0302B47D0102B3FD0936923F07003E6
:202080009361042353602CB16B6A23436B622846FFF743FFBDE8F88F7A0705D417F008044E
:2020A00005D1FFF732FF55E74FF4006452E74FF480544FE7790502D544F4005456E73A055D
:2020C00002D544F4804451E72846FFF71FFF4DE7790302D544F4004454E73A0302D544F4E9
:2020E00080344FE72846FFF712FF4BE7502B10D0602BC2D144F48074BFE744F00804BCE721
:2021000044F01004B9E744F02004B6E744F04004B3E744F08004B0E70749CA6822F4E062A7
:202120000302120403F4E063120C134343F0BF6343F40033CB60704700ED00E0164B30B522
:20214000DC68C4F30224C4F10703251D042B28BF0423062D4FF0FF358CBF033C002405FACD
:2021600003F321EA0303A54022EA0502A340002843EA0203ACBF00F16040084A4FEA031386
:20218000B8BF00F00F00DBB2AABF00F56140135480F8003330BD00BF00ED00E014ED00E0D1
:2021A000002807DB044A4109012300F01F00834042F82130704700BF00E100E000280CDBB6
:2021C0004309064900F01F0020330122824041F82320BFF34F8FBFF36F8F704700E100E0E9
:2021E000BFF34F8F0549064BCA6802F4E0621343CB60BFF34F8F00BFFDE700BF00ED00E006
:202200000400FA05002808DB4309044900F01F0001226033824041F82320704700E100E09C
:202220002DE9F043866A8C6800EB86079146BB691D68002D02DA0220BDE8F083FD6A002DA2
:20224000F9D125689D605D686268D1F800C025F4FF5525F01F0515431CF0010F5D6005D066
:202260001D684A6925F4400515431D601CF0200F05D01D68096925F04065294319601CF041
:20228000040F18BF1968DFF8FC801CBF41F080011960196841F08051196000253146A468D6
:2022A00005F1010E1CBB1A68B9F1000F66D042F080421A601A6842F000521A60BA69BFF30E
:2022C0005F8F136843F00043136000EB8103C26BDA628162EFF31082012383F31088036CDC
:2022E00001332B44036482F310880020A4E71D6825F000551D601D68B9F1000F23D045F04A
:20230000804501F1010CBCF1030F88BFA1F1030C00EB8C011D608B691D68002D16DAB969A5
:202320000022724587D0BFF35F8F0B6823F000430B60731C032B88BFF31E00EB83010132E2
:2023400089691E46EDE725F08045DAE7C96A0029E5D11968656821F080511960216899607B
:20236000596801EA080129435960BFF35F8F196841F0004119607546614690E722F08042CA
:2023800097E700BF00E0FFFF70B50D460268AB681168044668690343A8690343686A0343E4
:2023A000A87B43EA4063E87F43EA0043287F43EA0033287943EA8023E87B43EAC01395F8EB
:2023C000280043EA00132A480840297CB1FA81F10343490943EAC153697CB1FA81F14909EC
:2023E00043EA8153A97FB1FA81F1490943EA413395F82010B1FA81F1490943EA4123136074
:2024000001201668FFF71CFB2168A86C0E608A692B6D22F0BE02120443EA0043120C1343AE
:2024200095F84C20B2FA82F2520943EAC21395F85520501E4242424143EAC20395F85620BA
:20244000561E7242724143EA820395F8542002F1FF3CDCF1000242EB0C0243EA42038B6158
:2024600001208D69FFF7ECFA23689D6170BD00BF0F8120FD70B54B6902680D46096A0B43F0
:20248000697B43EA4163A97B43EA4153297F43EAC113A97F02F5805243EA811395F8241086
:2024A000044643EA810390691A4901400B43297BB1FA81F1490943EA8163697FB1FA81F10D
:2024C000490943EA0153936101209669FFF7B8FA2268A969AB6802F580520B43966195F823
:2024E000251043EAC11329690B4329680B43A96A43EA8103297943EA416343F40003136003
:2025000001201568FFF79CFA236803F580531D6070BD00BF233FDEF813B5002301930368B0
:2025200003F5805304469A6942F480129A619B6901930120FFF784FA2368019A03F58053A2
:202540009A6102B010BD00002DE9F743866EC76EDFF88C900023019306F11203044650F840
:2025600023504FF0010817B1B8F1000F14D1E36EBB420ED0BFF35F8F23682269711C01F0DB
:202580000301282003F5805300FB01229A60C4E91A6703B0BDE8F0832B6A33B901A801F0F8
:2025A0000BFE019BCBB12B62AB60A26D63698AB943EA09036B602B6843F000432B60731C1D
:2025C000032B88BFF31E03F11202013F54F822501E46C8E743F48043ECE79846C3E700BF48
:2025E00000400080F0B50446A7B0002800F0EE80D0F8843023B92323C0F8843001F00AFD4D
:2026000000230193724BA1685A6C42F480425A645B6C03F480430193019B6E4B5A6822F47F
:2026200000025A605A680A435A605B68236803F580531A6842F001021A60FFF7FBF9064695
:20264000236803F580531D6815F0010540F0B18001264FF4804240F201174FF400630DA961
:202660002046CDE912238DF83860ADF85260ADF842600F958DF850508DF85450ADF8447003
:2026800016958DF85C501F958DF880502195ADF888508DF88A50FFF777FE4FF480330493CB
:2026A0004FF40053CDE906354FF48003089320464FF4807302A98DF80C608DF81660ADF85A
:2026C0002430ADF814708DF826500A95ADF82C700C950295FFF7CEFEE66804F1140C3346CC
:2026E0002A462846186058609860D8604CF8043F1F68194647F4801741F8287B032A14BF81
:20270000D960DE601F68013247F44007042A1F600B46E7D1226802F580570021A1623E6135
:20272000266904F1440C33464FF0004EC3E908116069196040F4804059609960D960C3F81E
:2027400000E05860586820F000405860032D03F1280005F101054CF8043F14BFD860DE6001
:20276000042D0346E2D10020C4E91700C4E91A006168A065184BFE608D881D64096859642E
:20278000D36B43F40273D363D2F80C3143F4003343F06003C2F80C31D2F8103143F40313C3
:2027A000C2F810311023C4F88800C4F8843027B0F0BDFFF73FF9801BB0F5FA7F7FF640AF68
:2027C0000423C4F88830E023C4F884300120EEE7003802400038014000800240F8B5D0F8CB
:2027E0008430102B04464FF0010536D104232326C366C0F884608565FFF7A6FE23682846A2
:202800001F68FFF71DF923681F6003F5805320469A6942F400529A619A6942F002029A6130
:20282000FFF77AFE23681A6842F008021A6028461F68FFF705F923681F601A6842F00402BA
:202840001A6003F580530020DA6942F4D03242F0C102DA61C4F88460F8BD2846FCE738B5D5
:20286000D0F88430232B04463CD10168C0F8843001F580530120DA6922F4D03222F0C10248
:20288000DA619A6922F400529A619A6922F002029A610B6823F004030B600D68FFF7D0F858
:2028A000236820461D60FFF737FE23681A6822F008021A6001201D68FFF7C2F8234604F128
:2028C000540053F8442B156053F8041F4A68984242F000424A60F7D100201023A065C4F881
:2028E000843038BD0120FCE710B5044639B9D0F8883043F00103C4F88830012024E0D0F812
:202900008420232AF9D14B6BC3630122FFF788FC20B1D4F8883043F00203ECE7BFF34F8F93
:20292000A36A5A1C032A84BF033BA362236898BFA26203F580530022586910F0040003D0F6
:202940000421596110465A6010BD2DE9F04F044685B0894649B9D0F8883043F00103C0F8A7
:202960008830012005B0BDE8F08FD0F88430232BF7D1D0F85C8008F11203002750F823507F
:20298000C36E00F18001C3F1040A3E467C30BB462B68002B02DB564500D087B1E36E1E44B0
:2029A000E66616B12046FFF7CFFDC4F85C80002FD7D0E36FC9F800300020E067D2E72B6878
:2029C000DB0541BFEB69A367AB6963672B689A0501D4E36F03B32B6801909B052B682A68E3
:2029E00048BFC4E918BBD20544BF2A682267AA682A62C3F30D43CDE9021348BF012701F0CC
:202A0000FDFB226E039B01322266626EDDE901011A446266C5F820B008F10103032B88BF18
:202A2000A8F1030303F11202013654F822509846AEE72DE9F047D0E91064054601274FF05B
:202A400028094FF0000A06B117B90020BDE8F08705EB8408013ED8F82C0048B1EA6809FB33
:202A600004F3D358002B08DA234600271C46EAE7631C032BFAD9E31EF8E701F0D8FB631CC1
:202A8000032B88BFE31EC8F82CA0C5E91063EDE7704770470368344A2DE9F0419F6B03F59F
:202AA000805304465D69D3F81C8056696A0606D518F0400F03D02D4A5A6101F09FF9E807EE
:202AC0000BD518F0010F08D0236803F580534FF001125A61204601F097F9290423D518F4AB
:202AE000004F20D0D4F8883043F00803C4F88830236803F5805315F4005F5A692CD022F0D2
:202B00007F4222F4010222F45F4222F0FF02C4F88C20DA6922F4C032DA61E023C4F88430B0
:202B2000204601F077F93A070BD52368DB6A03F06003C4F894302046FFF7AAFF0023C4F823
:202B40009430330306D5084B4FF400225A612046FFF79FFFBDE8F08148F280610A40C4F8FC
:202B60008C205961DCE700BF003C014040000100F8B5054600681E460369920103F01C03DA
:202B8000CC0202F4F8621A43A4B2144344F001040461FEF74FFF074614F0010405D12B686D
:202BA0005B699BB233602046F8BDFEF743FFC01BB0F5803F02D22B681C69EDE70120F3E725
:202BC00070B5054600680469920104F01C0402F4F8622243CC02A4B214439BB244F0030451
:202BE00043610461FEF726FF064614F0010401D1204670BDFEF71EFF801BB0F5803F02D213
:202C00002B681C69F1E70120F3E7002961D003681A68C2F3001281F828201A6802F0600224
:202C20004A621A6882F40072C2F3402281F820201A68C2F30042CA771A6882F40052C2F3F5
:202C400040328A771A68C2F300320A771A6802F400628A611A6802F480424A611A6882F475
:202C60008002C2F380524A741A6882F40002C2F3C0520A741A68C2F3C012CA731A6802F490
:202C800060228A601A68C2F380220A711A68C2F340628A739A69C2F3400281F854209A69B4
:202CA00082F08002C2F3C01281F84C209A6902F030020A659A69120C8A649A69C2F38002D5
:202CC00081F856209B69C3F3C00381F85530002070470120704708B539B1D0F88430102B7D
:202CE00003D1FFF751FB002008BD0120FCE7000038B5036805461C6900F0EEFD0D4B9842A0
:202D000024F01C0404D844F008042B681C6138BD094B984202D244F00C04F6E7074B98420F
:202D2000F3D9074B984294BF44F0040444F01004EBE700BFBF0E160200879303FFE0F50558
:202D40007FD1F008D0F88C0070470000094910B50C6924F440740C610C6944F440740C618D
:202D60000C6944F001040C610260BFF36F8F436010BD00BF003C0240074B1A6922F44072DC
:202D80001A611A6942F400721A611A6942F001021A610160704700BF003C0240074B1A69B5
:202DA00022F440721A611A6942F480721A611A6942F001021A610180704700BF003C024002
:202DC0001A4BDA68D20606D51949CA6942F01002CA611022DA60DA68900606D51449CA69E6
:202DE00042F00802CA612022DA60104BDA68510606D50F49CA6942F00402CA614022DA6097
:202E0000DA68120606D50A49CA6942F00202CA618022DA60054AD3689B0706D50449CB6932
:202E200043F02003CB610223D3607047003C024080180020064B1A69002ABFBF054A5A6046
:202E400002F188325A60BABF1869C00F00207047003C024023016745034A136943F00043DE
:202E600013610020704700BF003C0240114B70B500220446DA61FEF7DDFD0F4D0646EB68D8
:202E8000DA030CD4EB68DB0744BF0123EB60E86810F0F20007D0FFF793FF012003E0611CAC
:202EA000EDD00CB9032070BDFEF7C4FD801BA042E5D9F7E780180020003C0240F7B5204E21
:202EC00001931446327E012A07460D4635D001224CF250303276FFF7C9FFB8B9019BCFB9A8
:202EE000184B1A6922F440721A611A691A611A69E4B242F001021A612C704CF25030FFF792
:202F0000B5FF104A136923F0010313610023337603B0F0BD012F04D1A1B22846FFF73EFF77
:202F2000EBE7022F04D121462846FFF725FFE4E722462846FFF70AFFDFE70220E8E700BFB4
:202F400080180020003C0240074B1A6922F440721A611A6942F004021A611A6942EA00201E
:202F600040F4803018617047003C02400D4B1A6922F440721A611A69022994BF09024FF452
:202F800040710A431A611A6922F0F8021A611A6942EAC00040F0020018611A6942F4803229
:202FA0001A617047003C0240144B1A6891050FD51A6822F400721A601A6842F400621A60EE
:202FC0001A6822F400621A601A6842F400721A600A4B1A6852050FD51A6822F480621A60D3
:202FE0001A6842F480521A601A6822F480521A601A6842F480621A60704700BF003C0240E1
:203000002DE9F843DFF8948098F81830012B05460F463FD001234CF2503088F81830FFF721
:2030200025FF0446A0B94FF0FF333B602B68012B14D1287CFFF788FF4CF25030FFF716FF2F
:20304000154A136923F0040304461361FFF7ACFF002388F818302046BDE8F883AE68DFF8BE
:203060003890D5E902231344B342EFD9297C3046FFF77CFF4CF25030FFF7F8FED9F810304A
:2030800023F0FA03C9F8103010B13E600446DDE70136E6E70224DEE7003C0240801800208D
:2030A0002DE9F74FDFF8A891674A00230D6801249C4004EA050CAC4340F0B1804D6805F061
:2030C00003044FEA43080326671E06FA08F6012F6FEA060634D8876807EA060ECF6807FAEC
:2030E00008F747EA0E078760476827EA0C0EC5F300179F4047EA0E074760C76807EA060EFB
:203100008F6807FA08F747EA0E07022CC76019D14FEAD30A00EB8A0A03F0070BDAF8207037
:203120004FEA8B0B4FF00F0E0EFA0BFE27EA0E0E0F6907FA0BF747EA0E07CAF8207001E032
:20314000032CDAD1076804FA08F437403C4315F4403F046063D04FF0000ACDF804A0D9F894
:2031600044603A4C46F48046C9F84460D9F8446006F480460196019E23F0030606F180467C
:2031800006F59C3603F0030ED6F808804FEA8E0E0F2707FA0EF7A04228EA070746D004F5E6
:2031A0008064A04244D004F58064A04242D004F58064A04240D004F58064A0423ED004F5CF
:2031C0008064A0423CD004F58064A0423AD004F58064A0420CBF0724082404FA0EF43C43F4
:2031E000B46094686FEA0C06EF0254BF34404CEA04049460D468AF0254BF34404CEA0404F8
:20320000D4605468AF0354BF34404CEA040454601468ED0354BF34404CEA040414600133BA
:20322000102B7FF443AF03B0BDE8F08F5446D4E70124D2E70224D0E70324CEE70424CCE750
:203240000524CAE70624C8E7003C014000000240003802402DE9F04F434CDFF81491DFF84B
:2032600014A1DFF814B10022012303FA02FE3EEA01050EEA010764D122F0030505F1804582
:2032800005F59C35394BD5F8088002F0030C4FEA8C0C0F2606FA0CF6984206EA080855D082
:2032A00003F58063984253D003F58063984251D003F5806398424FD003F5806398424DD0BA
:2032C00048454DD050454DD058450CBF0723082303FA0CF3434513D1236823EA0703236048
:2032E000636823EA07036360E36823EA0703E360A36823EA0703A360AB6823EA0603AB602B
:20330000056856000323B34025EA03050560D50800EB850502F0070C2E6A4FEA8C0C0F275F
:2033200007FA0CF726EA07062E62C56825EA0305C560456825EA0E054560856825EA0303FD
:2033400083600132102A8FD1BDE8F08F0023BFE70123BDE70223BBE70323B9E70423B7E7B6
:203360000523B5E70623B3E7003C0140000002400014024000180240001C02400369194232
:2033800014BF0120002070470AB1816170470904FBE738B5044610B303684CF6CC421A60F0
:2033A00045F255521A6042685A6082689A60FEF741FB05462268D36813F0030304D14AF60E
:2033C000AA211160184638BDFEF734FB401B3128F0D92368DB689B07ECD00320F3E7012073
:2033E000F1E703684AF6AA221A600020704700002DE9F341044640B30368DD0710D42368E8
:2034000098075BD423681A0700F19D8023685B0700F1BD80A069002840F0248100202CE0D7
:203420008D4B9A6802F00C02042A07D09A6802F00C02082A0BD15B68590208D5864B1B684E
:203440009A03DCD56368002BD9D1012015E06368814DB3F5803F13D12B6843F480332B607C
:20346000FEF7E8FA7C4E054633689B03C7D4FEF7E1FA401B6428F7D9032002B0BDE8F0811A
:20348000B3F5A02F04D12B6843F480232B60E3E72A6822F480322A602A6822F480222A6066
:2034A000002BDDD1FEF7C6FA06462B689F03A6D5FEF7C0FA801B6428F7D9DDE7664B9A6865
:2034C00012F00C0F07D09A6802F00C02082A11D15B685E020ED4604A13689D0702D5E368F2
:2034E000012BB2D11368216923F0F80343EAC103136087E7E268594BB2B101221A60FEF755
:2035000099FA554D06462B68980707D52B68226923F0F80343EAC2032B6073E7FEF78AFAA0
:20352000801B0228EFD9A7E71A60FEF783FA4A4E0546336899077FF565AFFEF77BFA401B19
:203540000228F6D998E76269444B82B10122C3F8802EFEF76FFA404E0546736F9F073FF5E7
:2035600055AFFEF767FA401B0228F6D984E7C3F8802EFEF75FFA384E0546736F98077FF5B5
:2035800045AFFEF757FA401B0228F6D974E7324B1A6C12F0805228D101921A6C42F0805255
:2035A0001A641B6C03F080530193019B01272C4D2B68D9051BD5A368274D012B27D12B6FD1
:2035C00043F001032B67FEF735FA234E054641F28838336F9B0739D5002F3FF41BAF1E4A69
:2035E000136C23F08053136414E70027DFE72B6843F480732B60FEF71DFA06462B68DA05F5
:20360000D9D4FEF717FA801B0228F7D934E7052B04D12B6F43F004032B67D0E72A6F22F07A
:2036200001022A672A6F22F004022A67002BCAD1FEF700FA41F2883806462B6F9807CBD5E7
:20364000FEF7F8F9801B4045F7D915E7FEF7F2F9401B4045BDD90FE7003802400000474249
:2036600000700040364DAB6803F00C03082B3DD0344B002202281A662BD1FEF7DBF9064666
:203680002B6899011FD4D4E907321343626A43EA8213E26A43EA0263A26A5208013A43EA84
:2036A00002436B60274B264D01221A66FEF7C2F904462B689A013FF5B1AEFEF7BBF9001BF3
:2036C0000228F6D9D8E6FEF7B5F9801B0228D7D9D2E6FEF7AFF904462B689B017FF59EAE8D
:2036E000FEF7A8F9001B0228F6D9C5E601283FF4C4AE6B68E26903F4800191427FF4A5AE78
:20370000216A03F03F028A427FF49FAE616A47F6C0721A40B2EB811F7FF497AEA26A52086F
:2037200003F44031013AB1EB024F7FF48EAEE26A03F07063B3EB026F3FF470AE85E600BFAE
:203740000038024000004742134908B58B6803F00C03042B1CD0082B1CD14A684B68496807
:2037600013F4800314BF0D480D48C1F3881118BF002302F03F02A1FB0001FCF779FD064B71
:203780005B68C3F3014301335B00B0FBF3F008BD0248FCE70248FAE70038024040787D0182
:2037A0000024F4002DE9F0410D46044610B90120BDE8F081434B1A6802F007028A4228D33B
:2037C00021688F072DD4C80740D43E4B1A6802F00702AA4265D8226851076BD4130707D5A0
:2037E000394A2169936823F4604343EAC1039360FFF7AAFF344B354A9B68C3F30313D35C88
:20380000D840334B1860334B1868FDF771FF0020CEE7CAB21A701B6803F007038B42C6D179
:20382000CEE7294B11F0040F1EBF9A6842F4E0529A600E0742BF9A6842F460429A609A681E
:20384000A06822F0F00202439A60BCE762681E4B012A1CD11B6813F4003FA8D01A4EB3686B
:2038600023F003031343B360FEF7E4F841F288380746B368626803F00C03B3EB820FA4D02B
:20388000FEF7D8F8C01B4045F3D9032090E7911E01291B6802D813F0007FDEE713F0020F0C
:2038A000DBE7EAB21A701B6803F00703AB427FF47EAF90E70449E0688B6823F4E053034384
:2038C0008B608BE7003C024000380240DCF00008640000206C000020014B1868704700BF6D
:2038E00064000020044B054A9B68C3F38223D35C034A1068D840704700380240ECF0000827
:20390000640000200F2303600B4B9A6802F0030242609A6802F0F00282609A6802F4E052AB
:20392000C2609B68DB0803F4E0530361034B1B6803F007030B60704700380240003C024009
:203940007047000090F83D30012B30D1022380F83D300368DA6842F00102DA60154A934234
:203960001AD0B3F1804F17D0A2F57C42934213D002F5806293420FD002F5806293420BD0E0
:2039800002F57842934207D002F57052934203D0A2F59432934204D19A6802F00702062A35
:2039A00003D01A6842F001021A60002070470120704700BF00000140704770477047704778
:2039C000036870B5DD681E69B10704460DD5AA070BD56FF002021A61012202779B699B07F6
:2039E00069D0FFF7EAFF00232377710710D56A070ED523686FF004021A61022222779B6915
:203A000013F4407F20465CD0FFF7D7FF0023237733070FD528070DD523686FF008021A6127
:203A200004222277DB699907204650D0FFF7C5FF00232377F20610D5EB060ED523686FF04B
:203A400010021A6108222277DB6913F4407F204643D0FFF7B2FF00232377F00708D5E9076B
:203A600006D523686FF001021A612046FDF714FE320608D52B0606D523686FF080021A618F
:203A8000204600F0CAF8700608D5690606D523686FF040021A612046FFF791FFB20622D52F
:203AA000AB0620D523686FF0200220461A61BDE8704000F0B1B8FFF77FFF2046FFF77EFF78
:203AC00091E7FFF779FF2046FFF778FF9EE7FFF773FF2046FFF772FFAAE7FFF76DFF20461A
:203AE000FFF76CFFB7E770BD334A0368904212D0B0F1804F0FD0A2F57C4290420BD002F5B6
:203B00008062904207D002F58062904203D002F57842904219D14A6823F070031343264A31
:203B2000904229D0B0F1804F26D0A2F57C42904222D002F5806290421ED002F580629042F7
:203B40001AD002F57842904216D01C4A904213D002F5806290420FD002F5806290420BD0E7
:203B6000A2F59832904207D002F58062904203D002F58062904203D1CA6823F440731343EC
:203B80004A6923F08003134303608B68C3620B688362094B984203D003F58063984201D12B
:203BA0000B690363012343610369DB0742BF036923F00103036170470000014000400140B4
:203BC00010B5044630B390F83D3003F0FF021BB980F83C20FFF7B4FE0223206884F83D3024
:203BE000211DFFF781FF012384F84630002084F83E3084F83F3084F8403084F8413084F8B1
:203C0000423084F8433084F8443084F8453084F83D3010BD0120FCE7704770477047000083
:203C200070B500218CB0084603F064FC124B134E0293134B01930023124A13490093304638
:203C4000124B134D04F05AF8304604F0EDF8304604F0F0F830460F4904F060F90FCD05AC18
:203C60000FC495E8070084E80700314605A800F0ECFA0CB070BD00BF61740008A018002023
:203C8000313E0008DC180020D8180020D4180020A4F000081D3C00080020704770B58CB048
:203CA0000D463022002168460AF093FA2C466B460022E4B9194E2B8973602846C6F808D035
:203CC000756304F05BFB16483146FEF70DFEE8B9144D28684FF0FF3100F064FB044600282B
:203CE000F7D10F48FEF7A5FE20460CB070BD042A10D061681960618959600AB143F8043C95
:203D0000246804B99C6001320C33D2E7284604F0D9F9E9E76FF00B00E7E700BF481A0020B6
:203D2000841A0020801A0020FDF784BE08B50248FEF7DEFF002008BD841A002008B5134643
:203D40000A4601460348FEF713FF003818BF0120404208BD841A002008B513460A46014698
:203D60000348FEF72DFF003818BF0120404208BD841A002008B50146074803F017FF074BF4
:203D80001A78012A07D100221A70054B1868BDE8084000F02CBB08BD70F10008401A0020A6
:203DA000441A00202DE9F743114FDFF84880DFF84890054638684FF0FF3100F0F3FA044606
:203DC0000028F7D198F8003001941BB901A94846FEF7BBFD019E002EECD02B6929463046E3
:203DE00098470028EED0304604F06CF9EAE700BF441A0020401A0020841A0020014B18681D
:203E000000F0F5BA441A0020014B186800F0EFBA801A002008B5FEF795FF030605D5034BEF
:203E20001868BDE8084000F0E2BA08BD441A00202DE9F0410446A6B030B9614B6149624876
:203E40004FF4F8720AF060F947F27343E3855F4B63615F4B5F4DA361002164220DA80AF0ED
:203E6000B8F95D4B2B605D4B00934FF40003AB605B4BEB605B4B2B614FF4C0636B615A4BD8
:203E8000C5F804D01B68594EDFF880811A0C28461B0E8DF805308DF80420FEF7A3FB342286
:203EA00000210746301D0AF094F92123336050484FF44003736103F025FE062384F82C30E0
:203EC0006B684C4E1A7884F826205A7884F827209A7884F82820DA7884F829201A7984F890
:203EE0002A205B7984F82B3040F2DC53A38494F82D3043F00A0384F82D300025012102A852
:203F0000CDE9025500F02AFA0121C8F8000004A8CDE9045500F022FA29463060D8F8000008
:203F200000F040FA3068344E294600F03BFA0FCE06AD0FC596E8070085E80700214606A837
:203F400000F083F92D492E48FDF7C3FC2C48FDF7D4FC48B1204603F0C7FF204603F084FF2A
:203F6000002026B0BDE8F0813FBB2548FDF7F2FC0128EFDD033802289EBF224B33F810602D
:203F8000214B0DA998BF33F81050124884BF4FF480454FF40066FEF738FE0DA90D48CDE9E3
:203FA0001256FEF798FE0B48FEF718FC204603F041FF204603F074FFD2E7FDF777FBCFE778
:203FC000FCF0000818F1000826F1000821CE00089D3C0008841A0020008002400080E10004
:203FE00080190020E0180020D8180020481A002070F10008801A0020C0F0000870000020F3
:020000040800F2
:20400000201A002054F100085AF10008441A0020FDF710BDF0B504468DB01422002107A835
:204020000AF0D7F82268364B9A4267D1A3F59043002401941A6B334842F000721A631A6BCE
:2040400002F000720192019A02941A6B42F080621A631A6B02F080620292029A03941A6B7D
:2040600042F000621A631A6B02F000620392039A04941A6B42F004021A631A6B02F00402D5
:204080000492049A05941A6B42F001021A631A6B02F001020592059A06941A6B42F0020217
:2040A0001A631B6B03F002030693022703260B25069B07A93223CDE90737CDE90A65FEF736
:2040C000EFFF862310480B9507A9CDE90737CDE90946FEF7E5FF4FF460530C480B9507A935
:2040E000CDE90737CDE90946FEF7DAFF3D2022460521FEF723F83D20FEF752F80DB0F0BDF8
:20410000008002400008024000000240000402402DE9F0479AB004466422002101A80AF0E0
:2041200058F80025DFF888901F4EDFF888A0A8462F464846FDF70EFC94F82D305A0710D591
:2041400001280CDC3046FEF78AFB204603F08CFE204603F0C9FE642000F09FF8E9E75B071E
:20416000F9D40128F7DD831E032B19D80F4A3AF8138032F8135001A93046FEF746FD01A908
:204180003046CDE90685FEF7A6FD3046FEF726FB204603F04FFE204603F082FE0127DAE7DC
:2041A000002FD8D0E7E700BF841A002068F10008201A002060F1000813B504460C4803F070
:2041C000C3FC034678B100F120020A49226001614FF4C061CDE9002100214122084603F064
:2041E0001FFF02B010BD044A206001211170F8E770F10008753D0008401A002030B500252B
:2042000042F8205CA2F1200422F8185C22F8163C026822B904600C6002681AB930BD0A6886
:204220001460F8E71189194411811268F5E703F049BF08B501F04EF8002008BDEFF305830E
:204240000BB101F097B801F08FB870B5054646692A69B5F908400B4686B0D0E9001076B10B
:20426000AD6965B1842C14BF03340024CDE90165009400F0C9FF0590059806B070BD842C07
:2042800014BF0334002405ADCDE9004592B200F0F3FF0128F0D00020EFE708B5012838BF61
:2042A000012001F07FF9002008BD4168012009B100F04DBB00F060BB13B500240194F0B1E6
:2042C000EFF30583ABB101AA214600F087FD012813D1019B13B9002002B010BD4FF0E0233C
:2042E0004FF08052C3F8042DBFF34F8FBFF36F8FF1E700F0B0FC0128EDD0FF20ECE7802095
:20430000EAE713B500240194EFF30583A3B101A900F0AEFB012815D1019B13B9002002B001
:2043200010BD4FF0E0234FF08052C3F8042DBFF34F8FBFF36F8FF1E71A46194600F054FA5C
:204340000128EBD0FF20EAE710B5EFF305841CB900F0C8FD204610BD8224FBE737B544687C
:204360000D466CB101291BD103230022009311462346284600F0CAF90446204603B030BDAB
:204380000129FAD121460322284600F009FA04460028F2D000231A46194600F025FAECE743
:2043A0000024EAE713B500240194F0B1EFF30583ABB101AA214600F011FD012813D1019B67
:2043C00013B9002002B010BD4FF0E0234FF08052C3F8042DBFF34F8FBFF36F8FF1E700F02B
:2043E0003AFC0128EDD0FF20ECE78020EAE7FFF788BFFFF7A9BF13B5034607C80AB1DB68C5
:204400002BB9002202B0BDE8104000F0C9B90024009400F07BF902B010BD1FB50024019158
:204420000394EFF30583B3B1234603AA01A900F0BDFA012817D1039B13B9002004B010BD94
:204440004FF0E0234FF08052C3F8042DBFF34F8FBFF36F8FF1E7012A38BF012201A900F026
:20446000C3F90128E9D0FF20E8E730B585B000230546144608460391029311B98023019356
:2044800018E00093EFF30583E3B16A4602A900F0A5FC431E58425841009B000101904BB1EA
:2044A0004FF0E0234FF08052C3F8042DBFF34F8FBFF36F8F04AB13E9070085E807002846E9
:2044C00005B030BD02A900F027FB012801D11023D5E7003C18BF0124A4010194EAE7EFF36E
:2044E00005830BB100F0DEBC00F0C7BCFFF72CBF00F108034FF0FF32C0E902234360036159
:2045000000230360704700230361704743684B609A688A609A68516099600368086101332A
:204520000360704730B50C68631C0AD103695A684A6091608B6059600368086101330360D6
:2045400030BD00F10802134652681568A542FAD9EDE7D0E9011203698A60516059688142FE
:2045600008BF5A60002202611A68013A1A601868704710B5044601F0ADFAA46B01F0CAFA5C
:20458000B4FA84F0400910BDF8B51546026C866B044652B9076847BB806801F07BF9A76062
:2045A00005460136A6632846F8BD65B9406809F0DBFE6368226C1344A26863609342F0D3A0
:2045C00023686360EDE7C06809F0CEFE226CE36851429B1A2268E36093423EBFA3685B188E
:2045E000E360022D01D116B1013E0025D9E73546D7E7034610B41A6C08466AB1DC68996812
:2046000014448C4228BF1968DC6028BFD960D9685DF8044B09F0A8BE5DF8044B704770B5EC
:20462000044601F057FA94F8455004F124066DB2002D14DCFF2384F8453001F06BFA01F018
:2046400049FA94F8445004F110066DB2002D12DCFF2384F84430BDE8704001F05BBA636A78
:20466000002BE7D0304601F027F808B101F0B0F8013D6DB2DCE72369002BE9D0304601F089
:204680001BF808B101F0A4F8013D6DB2DEE738B50D46044640B94FF0500383F31188BFF3C9
:2046A0006F8FBFF34F8FFEE701F014FAD4E90F31226862604B43D0185B1A1A44A060FF23D4
:2046C0000020A063E26084F8443084F84530A5B9236973B104F1100000F0EEFF48B14FF06C
:2046E000E0234FF08052C3F8042DBFF34F8FBFF36F8F01F00FFA012038BD04F11000FFF76F
:20470000F7FE04F12400FFF7F3FEF2E713B51C4640B94FF0500383F31188BFF36F8FBFF3A5
:204720004F8FFEE743B94FF0500383F31188BFF36F8FBFF34F8FFEE74AB191B94FF050031D
:2047400083F31188BFF36F8FBFF34F8FFEE741B14FF0500383F31188BFF36F8FBFF34F8F52
:20476000FEE748230193019B482B08D04FF0500383F31188BFF36F8FBFF34F8FFEE700297F
:2047800008BF2246019B22600123C4E90F0184F8463019462046FFF77AFF204602B010BDE0
:2047A00070B50D46064640B94FF0500383F31188BFF36F8FBFF34F8FFEE74843483001F082
:2047C000F3FA044660B1002380F8463055B100F14803C4E90F65236001212046FFF757FFC6
:2047E000204670BD0346F4E72DE9F04385B0884601921F46044640B94FF0500383F31188DA
:20480000BFF36F8FBFF34F8FFEE751B9036C43B14FF0500383F31188BFF36F8FBFF34F8F25
:20482000FEE7022F0BD1E36B012B08D04FF0500383F31188BFF36F8FBFF34F8FFEE700F07E
:20484000CDFF064650B9019B4BB14FF0500383F31188BFF36F8FBFF34F8FFEE700264FF074
:20486000000937E0019D1DB901F054F9002052E016B902A800F064FF01F04CF900F06CFDB9
:2048800001F028F994F84430FF2B08BF84F8449094F84530FF2B08BF84F8459001F03AF95E
:2048A00001A902A800F058FF00284AD101F012F9A26BE36B9A4231D101F02CF9019904F140
:2048C000100000F0DFFE2046FFF7A9FE00F0F2FD60B3012601F0FEF8A26BE36B9A4201D3ED
:2048E000022FBFD13A4641462046FFF74DFE636A1BB104F1240000F0DFFE48B14FF0E0238F
:204900004FF08052C3F8042DBFF34F8FBFF36F8F01F000F9012005B0BDE8F08301F0FAF89F
:204920002046FFF77CFE00F0C5FDD2E74FF0E0234FF08052C3F8042DBFF34F8FBFF36F8FB7
:20494000C7E72046FFF76BFE00F0B4FD8EE713B500220B46009011460120FFF7D7FE044676
:2049600038B1002383600360C3601A461946FFF73BFF204602B010BD38B5482001F014FA9A
:20498000044688B100250121C0E90F1580F846500060FFF77CFEA5602560E5602B462A46F2
:2049A00029462046FFF720FF204638BD2DE9F843894690461F46044640B94FF0500383F30C
:2049C0001188BFF36F8FBFF34F8FFEE751B9036C43B14FF0500383F31188BFF36F8FBFF3A9
:2049E0004F8FFEE7022F0BD1E36B012B08D04FF0500383F31188BFF36F8FBFF34F8FFEE7CF
:204A000001F07EF9EFF311864FF0500383F31188BFF36F8FBFF34F8FA26BE36B9A4201D3C9
:204A2000022F23D194F84550A36B6DB23A4649462046FFF7A9FD6B1C13D1636A0BB90120D5
:204A40000BE004F1240000F037FE0028F7D0B8F1000FF4D00120C8F8000086F31188BDE82A
:204A6000F88301356DB284F84550E8E70020F4E770B50D46044640B94FF0500383F311882F
:204A8000BFF36F8FBFF34F8FFEE7036C43B14FF0500383F31188BFF36F8FBFF34F8FFEE7C8
:204AA000036853B9836843B14FF0500383F31188BFF36F8FBFF34F8FFEE701F021F9EFF3ED
:204AC00011864FF0500383F31188BFF36F8FBFF34F8FA26BE36B93421CD994F84510013225
:204AE000FF294BB2A26310D1636A0BB9012009E004F1240000F0E0FD0028F7D0002DF5D049
:204B00000120286086F3118870BD01335BB284F84530EBE70020F5E72DE9FF410F4601926F
:204B2000044640B94FF0500383F31188BFF36F8FBFF34F8FFEE751B9036C43B14FF050036D
:204B400083F31188BFF36F8FBFF34F8FFEE700F045FE064650B9019B4BB14FF0500383F3F9
:204B60001188BFF36F8FBFF34F8FFEE700264FF000083DE0019D1DB900F0CCFF002056E068
:204B800016B902A800F0DCFD00F0C4FF00F0E4FB00F0A0FF94F84430FF2B08BF84F8448091
:204BA00094F84530FF2B08BF84F8458000F0B2FF01A902A800F0D0FD002841D12046FFF77A
:204BC000D8FCB8B3019904F1240000F05BFD2046FFF725FD00F06EFC48B94FF0E0234FF041
:204BE0008052C3F8042DBFF34F8FBFF36F8F012600F070FFA56B002DBCD039462046013D45
:204C0000FFF7F7FCA563236973B104F1100000F053FD48B14FF0E0234FF08052C3F8042D76
:204C2000BFF34F8FBFF36F8F00F074FF012004B0BDE8F0812046FFF7F2FC00F03BFCD6E7B8
:204C40002046FFF7ECFC00F035FC2046FFF791FC0028CCD092E7F0B585B00446019140B91A
:204C60004FF0500383F31188BFF36F8FBFF34F8FFEE7056C45B14FF0500383F31188BFF3B4
:204C80006F8FBFF34F8FFEE700F0A8FD064650B9019B5BB14FF0500383F31188BFF36F8FBE
:204CA000BFF34F8FFEE72E46002753E00546FBE7019B63B945B14FF0500383F31188BFF383
:204CC0006F8FBFF34F8FFEE700F024FF62E016B902A800F035FD00F01DFF00F03DFB00F04D
:204CE000F9FE94F84430FF2B08BF84F8447094F84530FF2B08BF84F8457000F00BFF01A9D5
:204D000002A800F029FD00284DD12046FFF731FC002842D023683BB900F0DCFEA06800F089
:204D20006DFD054600F0F6FE019904F1240000F0A9FC2046FFF773FC00F0BCFB48B94FF0E0
:204D4000E0234FF08052C3F8042DBFF34F8FBFF36F8F012600F0BEFEA36B002BA8D0013B53
:204D6000A363236813B900F03FFEA060236973B104F1100000F0A0FC48B14FF0E0234FF0EE
:204D80008052C3F8042DBFF34F8FBFF36F8F00F0C1FE0125284605B0F0BD2046FFF73FFCD9
:204DA00000F088FBD5E72046FFF739FC00F082FB2046FFF7DEFB0028CBD0002DEAD000F0F7
:204DC00089FE616A19B1236B1968C1F10701A06800F0B2FD002500F09DFEDBE72DE9F84384
:204DE00089469046054640B94FF0500383F31188BFF36F8FBFF34F8FFEE751B9036C43B197
:204E00004FF0500383F31188BFF36F8FBFF34F8FFEE700F075FFEFF311874FF0500383F3E6
:204E20001188BFF36F8FBFF34F8FAC6B1CB395F84460494676B22846FFF7DBFB013C731CC5
:204E4000AC6313D12B690BB901200BE005F1100000F032FC0028F7D0B8F1000FF4D001204B
:204E6000C8F8000087F31188BDE8F883013676B285F84460E8E72046F4E713B5044640B9A4
:204E80004FF0500383F31188BFF36F8FBFF34F8FFEE700F01FFEA06B019000F03BFE0198E1
:204EA00002B010BD40B94FF0500383F31188BFF36F8FBFF34F8FFEE7806B704710B5084AFB
:204EC000002302EBC3014C68844204D1002042F83300486010BD0133082BF2D1FAE700BFE3
:204EE000BC64002010B5044640B94FF0500383F31188BFF36F8FBFF34F8FFEE7FFF7DEFFD1
:204F000094F8463023B92046BDE8104000F0E6BF10BD00002DE9F041044600F0DBFD2F4B23
:204F20002F4E1A682F4F01321A603568002D4AD134601B68012B1FD1B84640460135FFF77F
:204F4000D7FA072D08F11408F7D1DFF8C080264D4046FFF7CDFA2846FFF7CAFA2348FFF719
:204F6000C7FA2348FFF7C4FA2248FFF7C1FA224BC3F80080214B1D60214A224913680868E4
:204F800001331360E26A01239340034314200B6000FB0270211DFFF7B9FA00F0BBFD1A4BE1
:204FA0001B6873B13368DA6AE36A9A4209D24FF0E0234FF08052C3F8042DBFF34F8FBFF3E6
:204FC0006F8FBDE8F081104B1A68E36A002AD3D13268D26A9A4298BF3460CDE7946500205B
:204FE000FC64002008650020BC650020DC65002008660020F46500200065002004650020ED
:20500000A0650020A4650020F0650020A8650020F8B51A4B1A4D1C680646286804300F463E
:20502000FFF797FA40B92A681649D06A0B680122824023EA02030B60731C07D137B1296810
:205040001148BDE8F8400431FFF760BA2B68A4195C6007D30D4B18682968BDE8F840043174
:20506000FFF760BA0A4B186829680431FFF75AFA084B1A68A24288BF1C60F8BD1C66002068
:20508000FC640020A4650020F46500200465002000650020D0650020064A13681968064BEE
:2050A00019B94FF0FF321A6070471268D268D2685268F8E700650020D065002010B504460D
:2050C0004C3009F09FF894F89D303BB9206B00F005FF2046BDE8104000F000BF012BF8D0FA
:2050E000022B08D04FF0500383F31188BFF36F8FBFF34F8FFEE710BD80B5134C134F144DC1
:20510000236873B9134B1B68012BF8D94FF0E0234FF08052C3F8042DBFF34F8FBFF36F8F7B
:20512000EDE700F0D7FCFB68DE68301DFFF711FA2B68013B2B602368013B236000F0EAFC67
:205140003046FFF7BBFFDBE7986500200866002094650020086500202DE9F047DDE9098476
:2051600002F18042266B013A06EB82060746994626F00706002941D04B1E04F1330201F127
:205180000F0513F8011F02F8011F09B1AB42F8D1002384F84330089D062D28BF06254FF00B
:2051A000000AE5626564201DC4F848A0FFF7ABF904F11800FFF7A7F9C5F107054C22C4F8CB
:2051C00098A05146A0182461A561646284F89CA008F0FFFF0B4B236503F16802D033626543
:2051E000A3654A463946304600F048FC2060B8F1000F01D0C8F80040BDE8F08784F8341009
:20520000C9E700BF44B0012070B586B0DDE90B5445B94FF0500383F31188BFF36F8FBFF389
:205220004F8FFEE744B94FF0500383F31188BFF36F8FBFF34F8FFEE7A0260596059EA02E16
:2052400008D04FF0500383F31188BFF36F8FBFF34F8FFEE72563022584F89D5004AD019551
:205260000A9D02940095059EFFF776FF2046FFF751FE049806B070BD2DE9F043074685B059
:20528000900088461646994600F08EFD0546E8B1A02000F089FD0446A8B1002380F89D30D5
:2052A0000D9B056301930C9B0290009332464B4641463846FFF750FF2046FFF72BFE012085
:2052C00005B0BDE8F083284600F008FE4FF0FF30F6E7000010B588B0002407AA06A905A824
:2052E000CDE90544FBF7D8FA059B0293069B079A12491348CDE900432346FFF785FFD0B161
:205300004FF0500383F31188BFF36F8FBFF34F8F0C4B0D4A1B684C3313600C4B4FF0FF32C2
:205320001A600B4B01221A600A4B1C6008B0BDE8104000F05FBC08B010BD00BF7CF10008BE
:20534000F9500008FC640020E8000020D0650020F06500201C660020024A1368013313609A
:20536000704700BF9C650020014B1868704700BF1C66002008B500F0C3FC014B186808BDB5
:205380001C660020404B1B682DE9F74F002B74D13E4B1D6801351D60BDB93D4B1A681268D6
:2053A00042B14FF0500383F31188BFF36F8FBFF34F8FFEE7374A1968106818601160364A51
:2053C000136801331360FFF767FE344E344F3368DFF8D8809D424FF0000411D2D8F800307C
:2053E000DB6A14225343FB58022B2E4B1B6828BF0124002B18BF0124204603B0BDE8F08FB0
:20540000DFF88CA0DFF8A890DAF800301B681BB94FF0FF333360E1E7DAF80030DB68D3F845
:205420000CB0DBF80420954201D23260D6E70BF1040108460191FFF78CF8DBF828200199B0
:2054400022B10BF11800FFF784F80199DBF82C00D9F80030012282401A43C9F80020142200
:2054600002FB0070FFF752F8D8F80010DBF82C20CB6A9A4228BF0124C6E70B4A13680133B2
:2054800013600024B8E700BF9C6500201C6600200065002004650020D4650020D065002098
:2054A0000865002020660020D8650020FC640020A46500202DE9F341324C236843B94FF025
:2054C000500383F31188BFF36F8FBFF34F8FFEE700F000FB2368013B2360246834B100247B
:2054E00000F018FB204602B0BDE8F081264B1B68002BF4D0254D264EDFF8A4801FE0EB6865
:20550000DC6804F11800FFF724F8211D08460191FFF71FF8E26A30680199012707FA02F361
:205520000343142000FB02803360FEF7EFFF194BE26A1B68DB6A9A4201D3174B1F602B6862
:20554000002BDCD10CB1FFF7A7FD144D2C6844B1114E0127FFF716FF00B13760013CF9D151
:205560002C600D4B1B68002BB9D04FF0E0234FF08052C3F8042DBFF34F8FBFF36F8F01246C
:20558000AEE700BF9C65002094650020DC650020A4650020FC64002020660020D865002070
:2055A0000865002008B550B94FF0E0234FF08052C3F8042DBFF34F8FBFF36F8F08BD0A4BFF
:2055C000196841B14FF0500383F31188BFF36F8FBFF34F8FFEE7FFF7BFFEFFF719FDFFF7DD
:2055E00069FF0028E0D0E9E79C65002038B51F4B1A681F4B12B101221A6038BD1D4C1A60FF
:205600002268236812681B6B9A4204D8206821683431FBF73FF9184B1A68B2FA82F2D2B294
:20562000C2F11F02142315495343C818CD5845B94FF0500383F31188BFF36F8FBFF34F8F87
:20564000FEE7456808336D6845600B449D4204BF6B684360142303FB0211094A4B68DB680B
:20566000236023684C331360C7E700BF9C65002020660020FC640020A465002008650020C0
:20568000E800002010B50C4640B94FF0500383F31188BFF36F8FBFF34F8FFEE7054B19685B
:2056A0001831FEF73FFF20460121BDE81040FFF7AFBC00BFFC640020C36837B5DC6844B9F9
:2056C0004FF0500383F31188BFF36F8FBFF34F8FFEE704F1180108460191FEF73AFF124B8B
:2056E00001991B68F3B9211D08460191FEF731FF0E48E26A05680199012393402B4303602D
:205700000B4B142000FB0230FEF700FF094BE26A1B68DB6A9A4285BF074B0120002018604B
:2057200003B030BD0548EFE79C650020A465002008650020FC64002020660020DC65002048
:20574000034B1B680360034B1B684360704700BFD46500201C66002070B50C46054640B975
:205760004FF0500383F31188BFF36F8FBFF34F8FFEE741B94FF0500383F31188BFF36F8F18
:20578000BFF34F8FFEE700F0A5F90F4B196823685A1C10D00D482E6800686A68864201D08C
:2057A0008A420FD9881A83420AD95B1A134423602846FFF7C5FF002400F0ACF9204670BD28
:2057C000002323600124F7E71C660020D4650020014B01221A60704720660020054B1B680C
:2057E00033B1054B1868B0FA80F040094000704701207047F06500209C650020F7B5044637
:20580000002831D0204DC36A2A68D26A934233D282691E4E002AA1BF2A68D26AC2F10702B2
:205820008261142202FB036342699A421ED1011D08460191FEF78DFE154B019930B9E76AC4
:205840001A680120B84022EA00021A602A681D68D26AE262012404FA02F028431860142062
:2058600000FB0260FEF752FE204603E02B68DB6AC362012003B0F0BD2B68406CDB6A984261
:205880002CBF00200120F5E7FC64002008650020A465002073B5044610B9002002B070BD90
:2058A000224B1B68834208D04FF0500383F31188BFF36F8FBFF34F8FFEE79B6C43B94FF053
:2058C000500383F31188BFF36F8FBFF34F8FFEE7C16A426C013B91428364DED0002BDCD1EC
:2058E000011D08460191FEF734FE114E114A019950B9E06A14234343F3582BB9136801254F
:20590000854023EA05031360636CE362C3F10700A0611068012404FA03F50543142000FB60
:2059200003601560FEF7F2FD2046B7E7FC64002008650020A465002037B5044600284BD0F8
:20594000826C42B94FF0500383F31188BFF36F8FBFF34F8FFEE7436C994238BF1946C36A8B
:205960008B4239D0012A37D11C4A1268824208D14FF0500383F31188BFF36F8FBFF34F8FC0
:20598000FEE78269164DC162002A4FF0140202FB03534269A4BFC1F1070181619A421BD16D
:2059A000011D08460191FEF7D4FDE46A0D4A019928B913680120A04023EA0003136010688C
:2059C0000123A3400343142000FB0450136003B0BDE83040FEF79ABD03B030BDFC64002050
:2059E00008650020A4650020044B1A681AB119688A6C01328A641868704700BFFC64002047
:205A000008480068006880F308884FF0000080F3148862B661B6BFF34F8FBFF36F8F00DFC7
:205A200000BF000008ED00E0DFF80C00016841F4700101607047000088ED00E082B000231E
:205A400001930D4B1B68013308D04FF0500383F31188BFF36F8FBFF34F8FFEE74FF0500373
:205A600083F31188BFF36F8FBFF34F8F019B002BFCD002B0704700BF840000204FF0807346
:205A800040F8043C074B40F80C3C21F001016FF0020340F8081C40F8202C40F8243C443851
:205AA000704700BF3D5A00080000000000000000074B19680868B0E8F04F80F30988BFF301
:205AC0006F8F4FF0000080F311887047AFF30080FC6400204FF0500383F31188BFF36F8FD3
:205AE000BFF34F8F0A4A13680133012B13600ED14FF0E023D3F8043DDBB243B14FF0500334
:205B000083F31188BFF36F8FBFF34F8FFEE7704784000020084A136843B94FF0500383F325
:205B20001188BFF36F8FBFF34F8FFEE7013B13600BB983F3118870478400002000000000CA
:205B4000EFF30980BFF36F8F154B1A681EF0100F08BF20ED108A20E9F04F10602DE90900D6
:205B60004FF0500080F31188BFF34F8FBFF36F8FFFF73CFD4FF0000080F3118809BC19688A
:205B80000868B0E8F04F1EF0100F08BFB0EC108A80F30988BFF36F8F704700BFAFF3008048
:205BA000FC64002008B54FF0500383F31188BFF36F8FBFF34F8FFFF7E5FB28B14FF0E023D6
:205BC0004FF08052C3F8042D002383F3118808BD4FF0E022002313619361054B4FF47A7187
:205BE0001B68B3FBF1F3013B5361072313617047640000204FF0E02337B5D3F8001D3A4A2D
:205C0000914208D14FF0500383F31188BFF36F8FBFF34F8FFEE7D3F8002D344B9A4208D1E6
:205C20004FF0500383F31188BFF36F8FBFF34F8FFEE72F4B1A78D2B20192FF221A701B783D
:205C40002C4ADBB28DF803309DF8033003F050031370294A0723136000219DF80300000629
:205C600003F1FF340CD411B1032B136011D04FF0500383F31188BFF36F8FBFF34F8FFEE713
:205C80009DF803305B00DBB28DF8033001212346E3E74FF440731360019B154A4FF0E024A0
:205CA000DBB21370D4F8203D43F47003C4F8203DD4F8203D43F07043C4F8203DFFF788FF43
:205CC0000E4B00251D60FFF7AFFED4F8343F43F04043C4F8343FFFF793FEFFF787FCFFF70C
:205CE000ADFE284603B030BD71C20F4170C20F4100E400E024660020286600208400002026
:205D0000EFF305830F2B0ED9114A9B5C114A12789A4208D94FF0500383F31188BFF36F8FB3
:205D2000BFF34F8FFEE74FF0E0230B4AD3F80C3D126803F4E063934208D94FF0500383F3D1
:205D40001188BFF36F8FBFF34F8FFEE7704700BFF0E300E0246600202866002010B5104BE4
:205D60001A461B688342FBD354681119884201BF4168104609195160446801198B420CD1FB
:205D8000084909688B4203D059682144416019680160904218BF106010BD1946F8E700BF15
:205DA00044E600202C6600202DE9F0410446FFF7D3FA4349434D0B680BBB434A56071FBF76
:205DC000D01D20F0070002F50042131A0CBF4FF40043024613443D4E083B23F0070300205E
:205DE00070603260C3E90000981AC2E900300B60374B1860374B18604FF000432B602F6805
:205E0000274207D0FFF756FBFAF745FD00263046BDE8F081002CF5D004F1080360071CBFE3
:205E200023F007030833002BECD0DFF8A880D8F800509D42E6D3254A14686068984201D20C
:205E40002668B6B90968A142DCD0216816681160C21A102A06F1080612D9E01841070BD0AC
:205E60004FF0500383F31188BFF36F8FBFF34F8FFEE722463446E0E742606360FFF76EFFEB
:205E800062681349AD1A1743134A08686760002323601368C8F80050854203F1010338BF40
:205EA0000D601360FFF706FB7307B0D04FF0500383F31188BFF36F8FBFF34F8FFEE700BF8C
:205EC0002C66002030E600203066002044E6002038E6002034E600203CE6002010B5044611
:205EE00090B31A4A50F8043C1268134208D14FF0500383F31188BFF36F8FBFF34F8FFEE705
:205F000050F8081C41B14FF0500383F31188BFF36F8FBFF34F8FFEE723EA020340F8043CD3
:205F2000FFF71AFA0A4A54F8043C1168A4F108000B441360FFF712FF064A1368BDE81040D8
:205F400001331360FFF7B6BA10BD00BF30E6002034E6002040E600200A6810B50C320C462B
:205F600001F0B8FA08B994F9040010BD08B560B1037803F0F003102B07D110609160BDE817
:205F8000084007481146FFF7E7BF064B0649074840F2A72208F0B8F86FF00F0008BD00BFF3
:205FA0008171000881F10008B3F1000826F1000800B589B058B90B4B0B490C4840F24742EA
:205FC00008F0A2F86FF00F0009B05DF804FB00908DF808102923694605488DF80930FFF78B
:205FE000BBFFF1E781F10008D7F1000826F10008B971000870B50D4688B0114600F0C0FEBF
:020000040800F2
:20600000044600283ED00090694620488DF80850FFF7A2FF002835D063682BB11C4B1D4944
:206020001D48A32208F070F804F11005284607F0E8FE28B9164B19491748A42208F064F864
:2060400004F1140007F0DDFE28B1114B14491248A62208F059F804F10C06304607F012FFE3
:2060600028B90B4B0F490C48A92208F04DF8304607F005FF284607F07DFE2146072001F065
:20608000A9FD0024204608B070BD00BF216D000881F10008F3F1000826F1000814F2000803
:2060A00029F200084AF2000800B589B038B10090292304488DF809306946FFF74DFF09B012
:2060C0005DF804FB256F000838B5054640B1FFF7EBFF044610B9284600F098FE204638BD65
:2060E0000446FBE700B589B058B90C4B0C490D484FF49C7208F008F86FF00F0009B05DF8AF
:2061000004FB094B0090002908BF194602910748ADF80C206946FFF71FFFEFE781F1000887
:2061200063F2000826F10008641701083170000800B589B058B90C4B0C490D484FF4BF7242
:2061400007F0E2FF6FF00F0009B05DF804FB094B0090002908BF194602910748ADF80C2006
:206160006946FFF7F9FEEFE781F100087EF2000826F10008641701086570000800B589B04D
:2061800058B9094B09490A4840F2B23207F0BCFF6FF00F0009B05DF804FB00900291054843
:2061A0006946FFF7D9FEF5E781F100089CF2000826F100084571000838B5044648B107F073
:2061C000A3FE002394F90850237207F0A9FE284638BD0546FBE70000F7B5002304461646DE
:2061E00001930D4651B9324B32494FF41272324807F08AFF6FF00F0003B0F0BD0B6020B9E3
:206200002B4B2E4940F24A22F1E700F11007384607F0F7FD38B92046FFF7CEFF0028EBD1AC
:206220006FF00A00E8E7237F06F0040603F00303334301A9384602D194F9082072B107F04B
:20624000CFFD01300CD12046FFF7B6FF0028D3D1237FDB07E4D46FF00600CDE707F09EFDA0
:206260002378019803F0F003102B16D10DF1030100F02CFD30B19DF9030010F10F0F08BF67
:206280000020B9E7019B1A89636A13B1012120469847019B2B600020AEE730B9044B0849A2
:2062A000054840F2912207F02FFF019B1B68EAE781F10008B7F2000826F10008D5F200087E
:2062C000F0F20008F0B5044689B010300F46164607F097FD00283CD094F91C20237F002A67
:2062E00012DA03F07F032377636A1BB1002201212046984763682BBB2046FFF75DFF051EF5
:2063000008BF6FF00D0518E0324639462046FFF763FF054688B932073F6805D487B1398959
:206320006A462046FFF722FE3FB9F306DCD5237F63F07F0323776FF00605284609B0F0BD40
:206340000121EDE701212046FFF732FE6FF00E05F3E76FF00A05F0E7F7B505460E4659B9AB
:20636000214B224940F26332214807F0CDFE6FF00F05284603B0F0BD00270F6020B91A4B3F
:206380001C4940F26532EFE7037803F0F003102B24D10620019701F0EDFB0446D8B1284690
:2063A0003A4601A9FFF78EFF054620B12146062001F010FCDDE7019F37B90B4B0E490C4835
:2063C00040F2793207F0A0FE0023C4E90077A381A3603460CDE74FF0FF35CAE73A4603B03E
:2063E000BDE8F040FFF7F8BE81F10008B7F2000826F10008D5F2000889FE00082DE9F74324
:206400000646BDF8288017461D460C4629B9254B25492648E52207F077FE9EB9214B2449F0
:206420002248E62207F070FE384603B0BDE8F04301F048BE736A002B31D0304603B0BDE8AE
:20644000F04318477368A34205D0164B19491748EE2207F059FE06F11009484607F0D1FC33
:206460000028E1D0062001F085FB04460028DBD0C0E9007705B12D683A89A5602146A4F859
:206480000C804846019207F07FFC019A01460028D0D0204603B0BDE8F04300F0F7BE03B0EA
:2064A000BDE8F083FCF200082EF3000826F1000850F300086FF3000807B501464068019095
:2064C00002F020FA0198094902F020FA0198084902F034FA01980749022202F065FA064902
:2064E000019803B05DF804EB02F040BAC56A0008596A0008E1690008956B000870B5154644
:206500000446002843D04378032B06D0214B2249224840F2235207F0F7FD236A4BB9237F31
:206520005B0706D41B4B1E491C4840F2245207F0EBFD266A16B1357136680C36237803F0FC
:20654000F003102B03D115B92046FFF7B5FF207F20F0040310F00405237708D14EB90D4BCA
:2065600010490E484FF4A66207F0CEFD01E0002EF5D1636A00222262627013B102212046F8
:20658000984715B9304607F077FC002001E06FF0050070BDFCF200088DF3000826F100083F
:2065A000ACF30008E9F300082DE9F84F0F46044630B9884B8849894840F2736207F0A4FD57
:2065C0006378012B06D0834B8549844840F2746207F09AFD236A33B97E4B82497F4840F2DA
:2065E000756207F091FD636833B97A4B7E497B4840F2766207F088FD236AD3E905329A4257
:2066000006D3744B7949754840F2776207F07CFD236A9B8933B96F4B7549704840F279620E
:2066200007F072FD236A267F93F81C80DFF8ACB106F0020608F004031E43216A65688A68BF
:206640000B691068B5F8645000EB030A5068A0EB0309B9F5803F2ABF4FF6FF721FFA89F206
:2066600048F00208AA4279D9002E38D0002D38D18B69002B0CBF6FF0060A4FF0000A236AFF
:20668000D3E905329A4276D2636A1BB10022032120469847237F43F010032377BAF1000F83
:2066A0007DD1236AD3E905329A4276D0003E18BF0126606805F04EFA043040F083806FF0E3
:2066C000030A236A0025186883F804A025626570002F7DD00C3007F0CFFB28466AE048F097
:2066E00002082B44984206D23A4B424940F2A362584607F009FD4FF6FF739D4202D1B9F576
:20670000803F07D21FFA89F9A94529D1236A9B89012B25D948F002084FF001095146606899
:2067200043462A4604F0B6FC8246E0B9236A9A6999682A449A611A6915444A681D6195427C
:2067400007D19A89013A92B29A8112B1083199601861B9F1000F7FF470AF0AE01546C0E7FF
:206760004FF00009DAE7431CDBB2012BA9D84FF0FF3A002E83D16368B3F86420B2F5866FE7
:2067800003D3B3F86630042B88D9636A002B85D0002203212046984780E7012689E7BAF1D1
:2067A000FF3F8ED1606805F0D5F9043087D01EB94FF0FF30BDE8F88F236A9B692BB14FF009
:2067C000000A7EE7002EFAD1F2E76FF0060A78E73846EFE7FCF2000806F4000826F100083F
:2067E00013F4000830F400084AF4000860F400089FF40008C7F400082DE9F84F89460446E8
:2068000030B96C4B6C496D4840F2A23207F07CFC237803F0F003102B06D0664B6849674856
:2068200040F2A33207F070FC6378042B06D0614B644962484FF4697207F066FC636833B9DD
:206840005C4B61495D4840F2A53207F05DFC236A33B9584B5D49594840F2A63207F054FC35
:20686000236A65681B7A032B03F0010A03F002080FD0BAF1000F05D02B7D5A1F012A08D965
:20688000082B06D0B8F1000F16D06F8B17F0100704D00021284602F035F801272B7D012BBB
:2068A0000CD10021284602F079F827BB42465146284602F00BFD21E04746EFE7BAF1000F82
:2068C00007D00021284602F021F80021284602F065F8B8F1000F03D00021284602F02EF837
:2068E000002FE3D000221146284602F05DF80021284602F03BF8284602F022FC236A06467D
:2069000058B1421C09D193F809B0BBF1000F30D11FB1284602F060FA5E46236A1D681E7167
